{
  "_format": "hh-sol-artifact-1",
  "contractName": "CrowdFunding",
  "sourceName": "contracts/CrowdFunding.sol",
  "abi": [
    {
      "inputs": [
        {
          "internalType": "uint256",
          "name": "",
          "type": "uint256"
        }
      ],
      "name": "campaigns",
      "outputs": [
        {
          "internalType": "address",
          "name": "owner",
          "type": "address"
        },
        {
          "internalType": "string",
          "name": "title",
          "type": "string"
        },
        {
          "internalType": "string",
          "name": "description",
          "type": "string"
        },
        {
          "internalType": "uint256",
          "name": "target",
          "type": "uint256"
        },
        {
          "internalType": "uint256",
          "name": "deadline",
          "type": "uint256"
        },
        {
          "internalType": "uint256",
          "name": "amountCollected",
          "type": "uint256"
        }
      ],
      "stateMutability": "view",
      "type": "function"
    },
    {
      "inputs": [
        {
          "internalType": "address",
          "name": "_owner",
          "type": "address"
        },
        {
          "internalType": "string",
          "name": "_title",
          "type": "string"
        },
        {
          "internalType": "string",
          "name": "_description",
          "type": "string"
        },
        {
          "internalType": "uint256",
          "name": "_target",
          "type": "uint256"
        },
        {
          "internalType": "uint256",
          "name": "_deadline",
          "type": "uint256"
        }
      ],
      "name": "createCampaign",
      "outputs": [
        {
          "internalType": "uint256",
          "name": "",
          "type": "uint256"
        }
      ],
      "stateMutability": "nonpayable",
      "type": "function"
    },
    {
      "inputs": [
        {
          "internalType": "uint256",
          "name": "_id",
          "type": "uint256"
        }
      ],
      "name": "donateToCampaign",
      "outputs": [],
      "stateMutability": "payable",
      "type": "function"
    },
    {
      "inputs": [],
      "name": "getCampaigns",
      "outputs": [
        {
          "components": [
            {
              "internalType": "address",
              "name": "owner",
              "type": "address"
            },
            {
              "internalType": "string",
              "name": "title",
              "type": "string"
            },
            {
              "internalType": "string",
              "name": "description",
              "type": "string"
            },
            {
              "internalType": "uint256",
              "name": "target",
              "type": "uint256"
            },
            {
              "internalType": "uint256",
              "name": "deadline",
              "type": "uint256"
            },
            {
              "internalType": "uint256",
              "name": "amountCollected",
              "type": "uint256"
            },
            {
              "internalType": "address[]",
              "name": "donators",
              "type": "address[]"
            },
            {
              "internalType": "uint256[]",
              "name": "donations",
              "type": "uint256[]"
            }
          ],
          "internalType": "struct CrowdFunding.Campaign[]",
          "name": "",
          "type": "tuple[]"
        }
      ],
      "stateMutability": "view",
      "type": "function"
    },
    {
      "inputs": [
        {
          "internalType": "uint256",
          "name": "_id",
          "type": "uint256"
        }
      ],
      "name": "getDonators",
      "outputs": [
        {
          "internalType": "address[]",
          "name": "",
          "type": "address[]"
        },
        {
          "internalType": "uint256[]",
          "name": "",
          "type": "uint256[]"
        }
      ],
      "stateMutability": "view",
      "type": "function"
    },
    {
      "inputs": [],
      "name": "numberOfCampaigns",
      "outputs": [
        {
          "internalType": "uint256",
          "name": "",
          "type": "uint256"
        }
      ],
      "stateMutability": "view",
      "type": "function"
    }
  ],
  "bytecode": "0x60806040526000600155348015601457600080fd5b506119e7806100246000396000f3fe6080604052600436106100555760003560e01c8063075843c31461005a57806307ca140d146100975780630fa91fa9146100c2578063141961bc1461010057806342a4fda814610142578063a6b036331461015e575b600080fd5b34801561006657600080fd5b50610081600480360381019061007c9190610cf8565b610189565b60405161008e9190610dba565b60405180910390f35b3480156100a357600080fd5b506100ac61038f565b6040516100b99190610dba565b60405180910390f35b3480156100ce57600080fd5b506100e960048036038101906100e49190610dd5565b610395565b6040516100f7929190610f7e565b60405180910390f35b34801561010c57600080fd5b5061012760048036038101906101229190610dd5565b6104a5565b60405161013996959493929190611043565b60405180910390f35b61015c60048036038101906101579190610dd5565b610611565b005b34801561016a57600080fd5b50610173610771565b6040516101809190611361565b60405180910390f35b600080600080600154815260200190815260200160002090504283116101e4576040517f08c379a00000000000000000000000000000000000000000000000000000000081526004016101db906113f5565b60405180910390fd5b60008411610227576040517f08c379a000000000000000000000000000000000000000000000000000000000815260040161021e90611487565b60405180910390fd5b600086511161026b576040517f08c379a0000000000000000000000000000000000000000000000000000000008152600401610262906114f3565b60405180910390fd5b600073ffffffffffffffffffffffffffffffffffffffff168773ffffffffffffffffffffffffffffffffffffffff16036102da576040517f08c379a00000000000000000000000000000000000000000000000000000000081526004016102d19061155f565b60405180910390fd5b868160000160006101000a81548173ffffffffffffffffffffffffffffffffffffffff021916908373ffffffffffffffffffffffffffffffffffffffff1602179055508581600101908161032e919061178b565b5084816002019081610340919061178b565b5083816003018190555082816004018190555060008160050181905550600160008154809291906103709061188c565b91905055506001805461038391906118d4565b91505095945050505050565b60015481565b6060806000808481526020019081526020016000206006016000808581526020019081526020016000206007018180548060200260200160405190810160405280929190818152602001828054801561044357602002820191906000526020600020905b8160009054906101000a900473ffffffffffffffffffffffffffffffffffffffff1673ffffffffffffffffffffffffffffffffffffffff16815260200190600101908083116103f9575b505050505091508080548060200260200160405190810160405280929190818152602001828054801561049557602002820191906000526020600020905b815481526020019060010190808311610481575b5050505050905091509150915091565b60006020528060005260406000206000915090508060000160009054906101000a900473ffffffffffffffffffffffffffffffffffffffff16908060010180546104ee906115ae565b80601f016020809104026020016040519081016040528092919081815260200182805461051a906115ae565b80156105675780601f1061053c57610100808354040283529160200191610567565b820191906000526020600020905b81548152906001019060200180831161054a57829003601f168201915b50505050509080600201805461057c906115ae565b80601f01602080910402602001604051908101604052809291908181526020018280546105a8906115ae565b80156105f55780601f106105ca576101008083540402835291602001916105f5565b820191906000526020600020905b8154815290600101906020018083116105d857829003601f168201915b5050505050908060030154908060040154908060050154905086565b60003490506000806000848152602001908152602001600020905080600601339080600181540180825580915050600190039060005260206000200160009091909190916101000a81548173ffffffffffffffffffffffffffffffffffffffff021916908373ffffffffffffffffffffffffffffffffffffffff1602179055508060070182908060018154018082558091505060019003906000526020600020016000909190919091505560008160000160009054906101000a900473ffffffffffffffffffffffffffffffffffffffff1673ffffffffffffffffffffffffffffffffffffffff168360405161070690611939565b60006040518083038185875af1925050503d8060008114610743576040519150601f19603f3d011682016040523d82523d6000602084013e610748565b606091505b50509050801561076b57828260050154610762919061194e565b82600501819055505b50505050565b6060600060015467ffffffffffffffff81111561079157610790610b97565b5b6040519080825280602002602001820160405280156107ca57816020015b6107b7610aaf565b8152602001906001900390816107af5790505b50905060005b600154811015610aa7576000806000838152602001908152602001600020905080604051806101000160405290816000820160009054906101000a900473ffffffffffffffffffffffffffffffffffffffff1673ffffffffffffffffffffffffffffffffffffffff1673ffffffffffffffffffffffffffffffffffffffff168152602001600182018054610863906115ae565b80601f016020809104026020016040519081016040528092919081815260200182805461088f906115ae565b80156108dc5780601f106108b1576101008083540402835291602001916108dc565b820191906000526020600020905b8154815290600101906020018083116108bf57829003601f168201915b505050505081526020016002820180546108f5906115ae565b80601f0160208091040260200160405190810160405280929190818152602001828054610921906115ae565b801561096e5780601f106109435761010080835404028352916020019161096e565b820191906000526020600020905b81548152906001019060200180831161095157829003601f168201915b5050505050815260200160038201548152602001600482015481526020016005820154815260200160068201805480602002602001604051908101604052809291908181526020018280548015610a1a57602002820191906000526020600020905b8160009054906101000a900473ffffffffffffffffffffffffffffffffffffffff1673ffffffffffffffffffffffffffffffffffffffff16815260200190600101908083116109d0575b5050505050815260200160078201805480602002602001604051908101604052809291908181526020018280548015610a7257602002820191906000526020600020905b815481526020019060010190808311610a5e575b505050505081525050838381518110610a8e57610a8d611982565b5b60200260200101819052505080806001019150506107d0565b508091505090565b604051806101000160405280600073ffffffffffffffffffffffffffffffffffffffff168152602001606081526020016060815260200160008152602001600081526020016000815260200160608152602001606081525090565b6000604051905090565b600080fd5b600080fd5b600073ffffffffffffffffffffffffffffffffffffffff82169050919050565b6000610b4982610b1e565b9050919050565b610b5981610b3e565b8114610b6457600080fd5b50565b600081359050610b7681610b50565b92915050565b600080fd5b600080fd5b6000601f19601f8301169050919050565b7f4e487b7100000000000000000000000000000000000000000000000000000000600052604160045260246000fd5b610bcf82610b86565b810181811067ffffffffffffffff82111715610bee57610bed610b97565b5b80604052505050565b6000610c01610b0a565b9050610c0d8282610bc6565b919050565b600067ffffffffffffffff821115610c2d57610c2c610b97565b5b610c3682610b86565b9050602081019050919050565b82818337600083830152505050565b6000610c65610c6084610c12565b610bf7565b905082815260208101848484011115610c8157610c80610b81565b5b610c8c848285610c43565b509392505050565b600082601f830112610ca957610ca8610b7c565b5b8135610cb9848260208601610c52565b91505092915050565b6000819050919050565b610cd581610cc2565b8114610ce057600080fd5b50565b600081359050610cf281610ccc565b92915050565b600080600080600060a08688031215610d1457610d13610b14565b5b6000610d2288828901610b67565b955050602086013567ffffffffffffffff811115610d4357610d42610b19565b5b610d4f88828901610c94565b945050604086013567ffffffffffffffff811115610d7057610d6f610b19565b5b610d7c88828901610c94565b9350506060610d8d88828901610ce3565b9250506080610d9e88828901610ce3565b9150509295509295909350565b610db481610cc2565b82525050565b6000602082019050610dcf6000830184610dab565b92915050565b600060208284031215610deb57610dea610b14565b5b6000610df984828501610ce3565b91505092915050565b600081519050919050565b600082825260208201905092915050565b6000819050602082019050919050565b610e3781610b3e565b82525050565b6000610e498383610e2e565b60208301905092915050565b6000602082019050919050565b6000610e6d82610e02565b610e778185610e0d565b9350610e8283610e1e565b8060005b83811015610eb3578151610e9a8882610e3d565b9750610ea583610e55565b925050600181019050610e86565b5085935050505092915050565b600081519050919050565b600082825260208201905092915050565b6000819050602082019050919050565b610ef581610cc2565b82525050565b6000610f078383610eec565b60208301905092915050565b6000602082019050919050565b6000610f2b82610ec0565b610f358185610ecb565b9350610f4083610edc565b8060005b83811015610f71578151610f588882610efb565b9750610f6383610f13565b925050600181019050610f44565b5085935050505092915050565b60006040820190508181036000830152610f988185610e62565b90508181036020830152610fac8184610f20565b90509392505050565b610fbe81610b3e565b82525050565b600081519050919050565b600082825260208201905092915050565b60005b83811015610ffe578082015181840152602081019050610fe3565b60008484015250505050565b600061101582610fc4565b61101f8185610fcf565b935061102f818560208601610fe0565b61103881610b86565b840191505092915050565b600060c0820190506110586000830189610fb5565b818103602083015261106a818861100a565b9050818103604083015261107e818761100a565b905061108d6060830186610dab565b61109a6080830185610dab565b6110a760a0830184610dab565b979650505050505050565b600081519050919050565b600082825260208201905092915050565b6000819050602082019050919050565b600082825260208201905092915050565b60006110fa82610fc4565b61110481856110de565b9350611114818560208601610fe0565b61111d81610b86565b840191505092915050565b600082825260208201905092915050565b600061114482610e02565b61114e8185611128565b935061115983610e1e565b8060005b8381101561118a5781516111718882610e3d565b975061117c83610e55565b92505060018101905061115d565b5085935050505092915050565b600082825260208201905092915050565b60006111b382610ec0565b6111bd8185611197565b93506111c883610edc565b8060005b838110156111f95781516111e08882610efb565b97506111eb83610f13565b9250506001810190506111cc565b5085935050505092915050565b60006101008301600083015161121f6000860182610e2e565b506020830151848203602086015261123782826110ef565b9150506040830151848203604086015261125182826110ef565b91505060608301516112666060860182610eec565b5060808301516112796080860182610eec565b5060a083015161128c60a0860182610eec565b5060c083015184820360c08601526112a48282611139565b91505060e083015184820360e08601526112be82826111a8565b9150508091505092915050565b60006112d78383611206565b905092915050565b6000602082019050919050565b60006112f7826110b2565b61130181856110bd565b935083602082028501611313856110ce565b8060005b8581101561134f578484038952815161133085826112cb565b945061133b836112df565b925060208a01995050600181019050611317565b50829750879550505050505092915050565b6000602082019050818103600083015261137b81846112ec565b905092915050565b7f446561646c696e652073686f756c642062652061206461746520696e2074686560008201527f206675747572652e000000000000000000000000000000000000000000000000602082015250565b60006113df602883610fcf565b91506113ea82611383565b604082019050919050565b6000602082019050818103600083015261140e816113d2565b9050919050565b7f54617267657420616d6f756e742073686f756c6420626520677265617465722060008201527f7468616e20300000000000000000000000000000000000000000000000000000602082015250565b6000611471602683610fcf565b915061147c82611415565b604082019050919050565b600060208201905081810360008301526114a081611464565b9050919050565b7f5469746c652063616e6e6f7420626520656d7074790000000000000000000000600082015250565b60006114dd601583610fcf565b91506114e8826114a7565b602082019050919050565b6000602082019050818103600083015261150c816114d0565b9050919050565b7f496e76616c6964206f776e657220616464726573730000000000000000000000600082015250565b6000611549601583610fcf565b915061155482611513565b602082019050919050565b600060208201905081810360008301526115788161153c565b9050919050565b7f4e487b7100000000000000000000000000000000000000000000000000000000600052602260045260246000fd5b600060028204905060018216806115c657607f821691505b6020821081036115d9576115d861157f565b5b50919050565b60008190508160005260206000209050919050565b60006020601f8301049050919050565b600082821b905092915050565b6000600883026116417fffffffffffffffffffffffffffffffffffffffffffffffffffffffffffffffff82611604565b61164b8683611604565b95508019841693508086168417925050509392505050565b6000819050919050565b600061168861168361167e84610cc2565b611663565b610cc2565b9050919050565b6000819050919050565b6116a28361166d565b6116b66116ae8261168f565b848454611611565b825550505050565b600090565b6116cb6116be565b6116d6818484611699565b505050565b5b818110156116fa576116ef6000826116c3565b6001810190506116dc565b5050565b601f82111561173f57611710816115df565b611719846115f4565b81016020851015611728578190505b61173c611734856115f4565b8301826116db565b50505b505050565b600082821c905092915050565b600061176260001984600802611744565b1980831691505092915050565b600061177b8383611751565b9150826002028217905092915050565b61179482610fc4565b67ffffffffffffffff8111156117ad576117ac610b97565b5b6117b782546115ae565b6117c28282856116fe565b600060209050601f8311600181146117f557600084156117e3578287015190505b6117ed858261176f565b865550611855565b601f198416611803866115df565b60005b8281101561182b57848901518255600182019150602085019450602081019050611806565b868310156118485784890151611844601f891682611751565b8355505b6001600288020188555050505b505050505050565b7f4e487b7100000000000000000000000000000000000000000000000000000000600052601160045260246000fd5b600061189782610cc2565b91507fffffffffffffffffffffffffffffffffffffffffffffffffffffffffffffffff82036118c9576118c861185d565b5b600182019050919050565b60006118df82610cc2565b91506118ea83610cc2565b92508282039050818111156119025761190161185d565b5b92915050565b600081905092915050565b50565b6000611923600083611908565b915061192e82611913565b600082019050919050565b600061194482611916565b9150819050919050565b600061195982610cc2565b915061196483610cc2565b925082820190508082111561197c5761197b61185d565b5b92915050565b7f4e487b7100000000000000000000000000000000000000000000000000000000600052603260045260246000fdfea26469706673582212200df629006b3915ee079dbb13812a3c4bd8e002285715059dce5d287546ec03f064736f6c634300081b0033",
  "linkReferences": {},
  "deployedLinkReferences": {}
}